:020000040800F2
:10000000B007002089010008A31E0008151D000884
:10001000A11E000889030008252200080000000036
:10002000000000000000000000000000A71E000803
:100030008B03000800000000A51E0008A91E000890
:10004000A3010008A3010008A3010008A301000800
:10005000A3010008A3010008A3010008A3010008F0
:10006000A3010008A3010008A3010008A3010008E0
:10007000A3010008A3010008A3010008A3010008D0
:10008000A3010008A3010008A3010008A3010008C0
:10009000A3010008A3010008A3010008A3010008B0
:1000A000A3010008A3010008A3010008A3010008A0
:1000B000291F0008A3010008A3010008A3010008EC
:1000C000A3010008A3010008A3010008A301000880
:1000D000A3010008A3010008A3010008A301000870
:1000E000A3010008A3010008A301000800F002F822
:1000F00000F03AF80AA090E8000C82448344AAF188
:100100000107DA4501D100F02FF8AFF2090EBAE885
:100110000F0013F0010F18BFFB1A43F0010318473B
:100120008C2D0000AC2D0000103A24BF78C878C197
:10013000FAD8520724BF30C830C144BF04680C60ED
:10014000704700000023002400250026103A28BF35
:1001500078C1FBD8520728BF30C148BF0B60704739
:100160001FB51FBD10B510BD00F058F81146FFF7C0
:10017000F7FF02F0E7F800F076F803B4FFF7F2FFBC
:1001800003BC00F07DF8000009488047094800479B
:10019000FEE7FEE7FEE7FEE7FEE7FEE7FEE7FEE737
:1001A000FEE7FEE704480549054A064B7047000094
:1001B000251F0008ED000008B0010020B007002056
:1001C000B0030020B00300204FF0000200B513463A
:1001D00094469646203922BFA0E80C50A0E80C5067
:1001E000B1F12001BFF4F7AF090728BFA0E80C5018
:1001F00048BF0CC05DF804EB890028BF40F8042B11
:1002000008BF704748BF20F8022B11F0804F18BF7D
:1002100000F8012B7047704770477047754600F033
:100220002BF8AE4605006946534620F00700854688
:1002300018B020B5FFF7B6FFBDE820404FF000062C
:100240004FF000074FF000084FF0000B21F00701BE
:10025000AC46ACE8C009ACE8C009ACE8C009ACE801
:10026000C0098D46704710B50446AFF300802046A4
:10027000BDE81040FFF781BF004870474C010020E7
:1002800001491820ABBEFEE72600020070470000BF
:1002900070B5044600688168C943C90717D18168F1
:1002A00021F00101816000F0D5FB05460AE000BFA6
:1002B00000F0D0FB401B022804D920688068C043AE
:1002C000C00706D020688068C043C007F0D0002077
:1002D00070BDA06A40F01000A062E06A40F001002A
:1002E000E062012070BD0000F8B5002604460096CB
:1002F00000688168C943C9072DD0816841F00101B8
:100300008160164816490068B0FBF1F000E0401E1D
:1003100000900028FBD100F09DFB054616E000BFD1
:1003200000F098FB401B022810D920688068C04369
:10033000C0070BD0A06A40F01000A062E06A40F055
:100340000100E06284F824600120F8BD2068806824
:10035000C043C007E4D10020F8BD000038000020F1
:1003600040420F000EB56946009001200190042024
:100370000290044800F00AF8002801D072B6FEE7A7
:100380000EBD00003C000020FEE77047F8B50024D9
:10039000009490F824202546012A12D0012280F8EA
:1003A00024204A681F23072A0DD20668776B521E45
:1003B00002EB820293409F430B6893401F43776395
:1003C00019E00220F8BD06680D2A0AD2376BD21F49
:1003D00002EB820293409F430B6893401F433763B5
:1003E00009E0F76A0D3A02EB820293409F430B68E3
:1003F00093401F43F7620A68072306680A2A0AD354
:10040000F7680A3A02EB420293409F438B6893409D
:100410001F43F76008E0376902EB420293409F43B5
:100420008B6893401F4337610A68102A01D0112A54
:1004300020D1124B02689A4217D193681B0219D43B
:10044000936843F4000393600968102912D10C49A2
:100450000C4A0968B1FBF2F101EB8101490000E0AF
:10046000491E00910029FBD104E0816A41F020017E
:100470008162012480F824502046F8BD0024014008
:100480003800002040420F000068C06C7047000038
:100490002DE9F0414FF0000704003D467ED0A06AF0
:1004A000002628B9E66284F82460204600F07EF831
:1004B0002046FFF7EDFEA16AC90600D420B1A06A6C
:1004C00040F01000A06269E0A16A21F4885141F077
:1004D0000201A1626268E169237B0A4347EA4301A2
:1004E0000A43A1684FF48077B94209D0012907D0A7
:1004F0005FF0000194F814C0BCF1010F02D00AE0D3
:100500003946F7E7F3B1A36A43F02003A362E36A35
:1005100043F00103E3622368D3F804C02CF4694C70
:100520004CEA010CC3F804C021688B68DFF870C086
:1005300003EA0C0313438B60A168B9420BD0012975
:1005400009D00CE0DFF85CC0A3690CEB43330B432C
:1005500043F40061DFE7218A0D05A5F580152168C8
:10056000CB6A23F470032B43CB62216889680E4B5E
:100570001940914208D1E662A16A21F0020141F0DE
:100580000101A162BDE8F081A06A20F0020040F004
:100590001000A062E06A40F00100E0620120F1E793
:1005A000FDF7E1FF00E0FFFFFE0E1FFF00B585B085
:1005B0000021009101910291039100680E49884247
:1005C00018D10E48816941F400718161816901F49B
:1005D00000710491816941F004018161806969467B
:1005E00000F00400049002200090032001900448D1
:1005F00000F032F905B000BD0024014000100240B7
:10060000000801402DE9F84300270D4604460097F5
:1006100000F020FA804620688168C90508D5A06AE4
:1006200040F02000A06284F824700120BDE8F88327
:100630004168C90503D4C06A10F4700F2AD00220A3
:1006400000F098FB3B490968B1FBF0F620680369AC
:1006500039490B424FEA61014FEAA1121FD1C36829
:100660004FEA611C13EA0C0F19D103690B4225D123
:10067000C068104222D1142023E0681C0AD02DB19A
:1006800000F0E8F9A0EB0800A84203D92068006850
:10069000800725D5206800688007EED52DE0036926
:1006A0000B4202D1C168114206D0026923490A42B5
:1006B00006D1C068084203D1542002E0292000E09E
:1006C000FC204643009816E0681C11D02DB100F0C4
:1006D000C1F9A0EB0800A8420AD90098B04207D29D
:1006E000A06A40F00400A06284F8247003209DE713
:1006F0000098401C0090B042E6D321686FF01200D1
:100700000860A06A40F40070A06220688068C0F3AE
:10071000424007280CD1207B50B9A06A20F4807099
:10072000A062A06AC00403D4A06A40F00100A062E5
:1007300000207BE7380000202449922449922400BD
:1007400070B5044690F8240001280DD0012084F8EB
:1007500024002046FFF7C8FD02004FF0000005D03E
:1007600084F82400104670BD022070BDA16A40F2DA
:100770000123994341F48071A1621F4D23681F49F1
:10078000AB4218D10E6816F4702F14D0A66A46F446
:100790008016A6620E68760505D5A66A26F4005670
:1007A00046F48056A662A66AF6040AD5E66A26F0E2
:1007B0000606E66206E0A66A26F48016A6625E6871
:1007C000E9E7E06284F824006FF002001860206816
:1007D0008368C3F34243072B05D1A84208D10968B7
:1007E00011F4702F04D0816841F480118160B9E761
:1007F000816841F4A001F9E7002801400424014088
:1008000010B5044690F82400012807D0012084F890
:1008100024002046FFF73CFD10B107E0022010BD88
:10082000A16A21F4885141F00101A162002184F8FC
:10083000241010BD70B5044600F00CF90546601C8C
:1008400002D004480078044400F004F9401BA042A0
:10085000FAD370BD2C0000202DE9F84FDFF8B891D5
:10086000002409F1040A0AF1040B23460F270BF1B7
:10087000040EC9E00125A5402A40AA427DD1674E59
:10088000D1F804C0ACEB0608B44532D014DCBCF19E
:10089000030F3AD009DCBCF1000F2AD0BCF1010FE4
:1008A0001CD0BCF1020F31D11DE0BCF1110F17D0EB
:1008B000BCF1120F2AD119E0B8F5881F19D006DC57
:1008C000B8F5803F15D0B8F5801F1FD111E0B8F5FD
:1008D000001F0ED0B8F5041F18D10AE0CB6815E050
:1008E000CB681B1D12E0CB6808330FE0CB680C33DC
:1008F0000CE08B682BB1012B4FF0080303D045614E
:1009000004E0042302E0056100E00023FF2A01D88F
:10091000064601E000F104064FEA840501D9A5F17D
:100920002005D6F8008007FA05FC28EA0C0803FA2F
:1009300005F548EA0508C6F800804D68ED0062D567
:10094000374DAE6946F00106AE61AD6924F003068D
:1009500005F001050095334D06EB050CDCF8085059
:10096000A607360F07FA06F825EA0805DFF8B8806B
:10097000404503D14FF0000817E044E0DFF8AC80B9
:10098000404502D14FF001080FE0DFF8A480404558
:1009900002D14FF0020808E0DFF89880404502D10C
:1009A0004FF0030801E04FF0040808FA06F848EA9F
:1009B0000508CCF808804D68D9F80060ED034D4675
:1009C00001D5164300E096432E604D68DAF80060CA
:1009D000AD03554601D5164300E096432E604D68A1
:1009E000DBF80060ED025D4601D5164300E096435A
:1009F0002E604D68DEF80060AD02754601D51643E5
:100A000000E096432E60641C0D682A46E5407FF4A2
:100A100031AFBDE8F88F0000000401400000111064
:100A2000001002400000014000080140000C01409D
:100A30000010014000140140C26821EA02030A408C
:100A400043EA0241016170470AB10161704709043C
:100A5000FBE7000001488068704700002C00002080
:100A600070B5040025D094F83D00002520B984F825
:100A70003C50204600F0B8F8242084F83D0020685F
:100A8000016821F0010101602068016841F4004122
:100A900001602068016821F40041016000F0DAFA89
:100AA0004D4A6168914201D84C4900E04C49884266
:100AB00001D2012070BD4B492368B0FBF1F15E68A3
:100AC00026F03F060E435E606368934206D94FF4FA
:100AD000967359434FF47A73B1FBF3F12368491CC1
:100AE0001E6A26F03F06314319626168914210D8B0
:100AF0004900401EB0FBF1F2521CC2F30B02042A63
:100B000001D2042022E0B0FBF1F0401CC0F30B0046
:100B10001CE0A268F2B301EBC10303EB0116431E14
:100B2000B3FBF6F35B1C43F480431B0549D092B33F
:100B300001EBC10202EB0111401EB0FBF1F0401CC1
:100B4000C0F30B0040F4804040F400402168CA69C3
:100B50004CF6FF739A431043C861D4E90710014370
:100B60002068026822F0C00211430160D4E9030149
:100B700001432068826848F2FF339A431143816041
:100B8000D4E9050108432168CA6822F0FF02104336
:100B9000C86001E00EE016E02068016841F0010144
:100BA00001602564202084F83D00256384F83E50D0
:100BB000002070BD01EB4106431EB3FBF6F35B1C46
:100BC000B3E70120C2E701EB4101401EB0FBF1F0A9
:100BD000401CC0F30B00B7E7A086010080841E0014
:100BE00000093D0040420F0010B586B00021009181
:100BF00001910291039100680F4988421AD10F4C6C
:100C0000A06940F00800A061A069694600F00800F2
:100C10000490C02000901220019003200390084807
:100C2000FFF71AFEE06940F40010E061E06900F4AB
:100C30000010049006B010BD0054004000100240A7
:100C4000000C0140024881680278114481607047BD
:100C50002C000020074810B5016841F01001016028
:100C6000032000F075F80F2000F006F800F024F8DB
:100C7000002010BD0020024070B50D4D04464FF419
:100C80007A712878B1FBF0F00A490968B1FBF0F0FD
:100C900000F0C6FB48B9102C07D200222146501E96
:100CA00000F036F800206C6070BD012070BD0000BF
:100CB0002C000020380000200C4808B5816941F064
:100CC00001018161816901F001010091C16941F077
:100CD0008051C161C06900F08050009004484168B3
:100CE00021F0E06141F00071416008BD0010024058
:100CF00000000140002809DB00F01F0201219140A3
:100D00004009800000F1E020C0F8001170470000A9
:100D1000F0B40E4B1B680C46C3F30223C3F1070566
:100D2000042D00D90425191D072901D2002300E054
:100D3000DB1E012606FA05F1491E214099409E401E
:100D4000761E16403143F0BC01F06DBA0CED00E0A8
:100D5000064900F0070208684FF6FF03184040EA12
:100D60000220034A10430860704700000CED00E0C9
:100D70000000FA0510B529A401461DCC86B08DE807
:100D80001D002AA02A4C006804900020012923D0CD
:100D900002293AD010291DD161682268D20119D5E3
:100DA000C1F38342C9031DF8020009D5616804AA92
:100DB000C1F34041515C1F4AB2FBF1F1484301E0ED
:100DC0001D4948436168490204D440005FF00301B3
:100DD000B0FBF1F006B010BD226AC2F30121012977
:100DE00003D1920701D5C803F4E7022905D1626A4D
:100DF000920702D549F64040ECE70329EAD1216881
:100E00008903E7D54FF22440E4E700F033F9616845
:100E1000C1F38131491C4900DAE7000002030405EF
:100E2000060708090A0B0C0D0E0F10100102000036
:100E30000010024000127A0000093D002DE9F8433D
:100E400005460078354CC00754D0E0690026C00044
:100E500008D4E06940F08050E061E069012600F0CC
:100E6000805000902E480168C90512D40168804660
:100E700041F480710160FFF7EDFD074605E000BF1A
:100E8000FFF7E8FDC01B642823D8D8F80000C00590
:100E9000F6D5206A10F4407021D0A98801F4407181
:100EA00081421CD0206A1F49012220F440700A6050
:100EB00000220A602062C00711D0FFF7CBFD074671
:100EC00041F2883808E000BFFFF7C4FDC11B41456F
:100ED00002D90320BDE8F883206A8007F4D5206A90
:100EE000696820F44070084320621EB1E06920F078
:100EF0008050E0612878800705D56068A96820F4F3
:100F00004040084360602878C00605D56068E968FD
:100F100020F48000084360600020DBE700100240FE
:100F200000700040400442422DE9F0470F460500A2
:100F300061D0434E306800F00700B84209D23068F3
:100F400020F0070038433060306800F00700B842F6
:100F500051D128683B4C810712D5400703D5606802
:100F600040F4E06060602878000703D5606840F4D2
:100F7000605060606068A96820F0F000084360601D
:100F80002878C00728D06868012810D02168022876
:100F900010D0890700292EDA616821F0030101438E
:100FA0006160FFF757FD804641F288390DE0216806
:100FB0008903EFE78901EDE7FFF74CFDA0EB08019E
:100FC000494502D90320BDE8F0876068696800F0F0
:100FD0000C00B0EB810FEFD1306800F00700B84291
:100FE0000BD9306820F0070038433060306800F0DB
:100FF0000700B84201D00120E5E72878400705D571
:101000006068E96820F4E0600843606028780007C1
:1010100006D56068296920F4605040EAC10060602C
:1010200000F038F86168084AC1F30311515CC84008
:101030000649086006480068FFF71EFE0020C2E768
:101040000020024000100240922E000838000020CC
:10105000300000200448054900684968044AC1F38B
:101060000221515CC8407047380000200010024047
:10107000A22E00080448054900684968044AC1F3E3
:10108000C221515CC8407047380000200010024067
:10109000A22E000812A185B00FC98DE80F0014A080
:1010A000144A006804905168134801F00C03042BA3
:1010B00010D0082B0ED1C1F38343C9031DF80300E0
:1010C0000AD5516804AAC1F34041515C0A4A504311
:1010D000B0FBF1F005B0704708494843FAE700005B
:1010E00002030405060708090A0B0C0D0E0F101069
:1010F000010200000010024000127A0000093D00C9
:101100002DE9F84F040070D02078C04DC00749D0B9
:101110006868C0F38100012807D06868C0F38100C7
:10112000022809D16868C00306D52868800339D52C
:1011300060680028E7D035E06068B0F5803F0BD0EC
:1011400010B1B0F5A02F11D0286820F480302860AD
:10115000286820F4802002E0286840F4803028606D
:10116000606890B1FFF776FC06460AE0286840F414
:1011700080202860F0E700BFFFF76CFC801B64282C
:1011800073D828688003F7D50CE0FFF763FC0646A8
:1011900005E000BFFFF75EFC801B6428F0D82868DC
:1011A0008003F7D420789A4E80074FF001094FF062
:1011B000000839D5686810F00C0F07D06868C0F3D4
:1011C0008100022809D16868C00306D42868800716
:1011D00014D52069012808D110E02069B0B1C6F803
:1011E0000090FFF737FC074605E00AE1FFF732FC05
:1011F000C01B0228C4D828688007F7D52868616911
:1012000020F0F80040EAC10028600DE0C6F8008038
:10121000FFF720FC074604E0FFF71CFCC01B022878
:1012200023D828688007F7D4207800072CD5794880
:10123000A169D9B1C0F80090FFF70CFC074604E0A3
:10124000FFF708FCC01B02280FD8686A8007F7D593
:1012500071484FF4FA510068B0FBF1F0009000BF04
:101260000098411E0091FAD20EE080E0C0F80080A4
:10127000FFF7F0FB074604E0FFF7ECFBC01B02287A
:1012800075D8686A8007F7D42078400760D5E86988
:101290000027C00008D4E86940F08050E861E869A0
:1012A000012700F0805000905C480168C90513D404
:1012B0000168834641F480710160FFF7CBFB8246F1
:1012C00006E000BFFFF7C6FBA0EB0A0064284ED87B
:1012D000DBF80000C005F5D5E06801280AD008B1A8
:1012E000052813D0286A20F001002862286A20F01F
:1012F000040002E0286A40F001002862E06841F240
:10130000883B98B1FFF7A6FB82460BE0286A40F0C5
:1013100004002862EEE700BFFFF79CFBA0EB0A0188
:1013200059455AD8286A8007F6D50CE0FFF792FB9A
:10133000824605E0FFF78EFBA0EB0A0159454CD829
:10134000286A8007F6D41FB1E86920F08050E86170
:10135000E06988B36968C1F38101022944D0022899
:10136000C6F8608004D0FFF775FB044638E034E02F
:10137000FFF770FB074604E0FFF76CFBC01B022879
:101380002BD828688001F7D4206AB0F5803F05D1BA
:101390006868A16820F4003008436860D4E9080157
:1013A0000843696821F4741108436860C6F86090C6
:1013B000FFF750FB044606E025E000BFFFF74AFBBD
:1013C000001B022809D828688001F7D51BE000BF60
:1013D000FFF740FB001B022802D90320BDE8F88F6D
:1013E00028688001F4D40EE00128F7D06868226AEA
:1013F00000F48031914204D1616A00F47010884297
:1014000001D00120EAE70020E8E7000000100240D8
:101410000000424280044242380000200070004038
:1014200010B5401EB0F1807F01D3012010BD4FF0F8
:10143000E02460610F21601700F0F5FE0020A0613C
:1014400007202061002010BD7047704770B590F8EC
:101450003C20012A26D0012480F83C40022280F85A
:101460003D2003685A689D6822F070060A6832437E
:101470005A600D4B02689A4208D0B2F1804F05D0F5
:101480000A4B9A4202D00A4B9A4204D1496825F08D
:1014900080031943916080F83D40002180F83C10A2
:1014A000084670BD022070BD002C014000040040C1
:1014B0000008004010B5040003D094F83D0010B1BE
:1014C00007E0012010BD002084F83C00204600F019
:1014D0001FF8022084F83D00211D206800F02AFD3D
:1014E000012084F8460084F83E0084F83F0084F828
:1014F000400084F8410084F8420084F8430084F8F6
:10150000440084F8450084F83D00002010BD000030
:1015100008B50068B0F1804F12D10A48C16941F0A6
:101520000101C161C069002200F001000090114674
:101530001C20FFF7EDFBBDE808401C20FFF7DABBDD
:1015400008BD00000010024090F83D10012901D0B4
:1015500001207047022180F83D100168CA6842F0FE
:101560000102CA6000680B49884208D0B0F1804F80
:1015700005D00949884202D00849884204D18168CF
:1015800001F00701062903D0016841F00101016063
:1015900000207047002C014000040040000800407B
:1015A00070B5044690F83C00012817D0012584F856
:1015B0003C50022084F83D002068826822F07702C7
:1015C00022F47F4282600868502830D00DDC202849
:1015D0004DD005DC98B310283BD148E0022070BD07
:1015E000302844D0402834D139E0602828D07028F1
:1015F00006D0B0F5805F2CD0B0F5005F29D10AE0AD
:10160000CB68D1E90121206800F0D7FC206881680F
:1016100041F0770109E0CB68D1E90121206800F0B1
:10162000CCFC2068816841F48041816011E0CA6887
:101630004968206800F076FD5021206807E016E038
:10164000CA684968206800F07EFD6021206800F0CB
:10165000BEFC84F83D50002084F83C0070BDCA6890
:101660004968206800F05EFD40212068EFE72268AD
:1016700001461046EBE7704770B504460068016903
:101680004FF00005C943890715D4C168C9438907CC
:1016900011D4E91E0161012020772068806980074C
:1016A000204602D0FFF7E7FF04E000F0E3F8204611
:1016B00000F075FA257720680169C943490717D4F6
:1016C000C168C943490713D46FF0040101610220C6
:1016D00020772068806910F4407F204602D0FFF711
:1016E000CAFF04E000F0C6F8204600F058FA25775B
:1016F00020680169C943090716D4C168C9430907AD
:1017000012D46FF008010161042020772068C069BD
:101710008007204602D0FFF7AEFF04E000F0AAF8F1
:10172000204600F03CFA257720680169C943C906C4
:1017300017D4C168C943C90613D46FF01001016101
:10174000082020772068C06910F4407F204602D02E
:10175000FFF791FF04E000F08DF8204600F01FFA3B
:10176000257720680169C943C90708D1C168C94301
:10177000C90704D1891E0161204600F05FFA206884
:101780000169C943090609D4C168C943090605D4DA
:101790006FF0800101612046FFF756FE2068016965
:1017A000C943490609D4C168C943490605D46FF045
:1017B00040010161204600F042FA20680169C943F6
:1017C00089060BD4C168C943890607D46FF020018C
:1017D00001612046BDE87040FFF737BE70BD0000D4
:1017E00000B585B00021009101910291039100683C
:1017F000B0F1804F11D10A48816941F00401816143
:101800008069694600F004000490012000900220E5
:10181000019003900348FFF71FF805B000BD0000DA
:10182000001002400008014010B5044690F83C004A
:1018300001280AD0012084F83C0042B1042A0AD0D1
:10184000082A0CD00C2A11D10DE0022010BD20680E
:1018500000F0C6FB0AE0206800F0EAFB06E0206822
:1018600000F012FC02E0206800F03AFC002084F84E
:101870003C0010BD2DE9F041314988425DD1007F27
:1018800002285AD12F4CE068401CE06000F0DCFCDC
:10189000208901F039F96FF00B0101F0BCFA2A4DF3
:1018A000294601F045F9294601F072F801F0F4F8F3
:1018B00085B22580A08800F070FE244A244B00F0F9
:1018C0007FFE244A244B00F093FD00F039FE80B2E5
:1018D0002D1A60804FF00008A562002D02DCC4F8CC
:1018E000108025E0606A01F0F7F8A16901F020F9A5
:1018F0000746206A281A01F0EFF8E16901F018F9AB
:101900000646284601F0E8F8616901F011F9314610
:1019100001F03EF8394601F03BF801F0A1F84FF430
:101920007A712061884201DD216101E00028D6DB67
:1019300025624FF0804120694863BDE8F0810000D6
:10194000C0000020000000200000484336AB3E5796
:101950005BB1BF3F2B1895D40948314010B5040046
:1019600003D094F83D0010B107E0012010BD002025
:1019700084F83C00204600F01EF8022084F83D0068
:10198000211D206800F0D6FA012084F8460084F872
:101990003E0084F83F0084F8400084F8410084F859
:1019A000420084F8430084F8440084F8450084F839
:1019B0003D00002010BD704710B50446022249B119
:1019C000042912D008291CD094F84100012823D002
:1019D000012010BD94F83E000128F9D184F83E2082
:1019E0002068C26842F0020209E094F83F00012832
:1019F000EED184F83F202068C26842F00402C26041
:101A00000EE094F840000128E2D184F840202068DC
:101A1000C26842F00802F2E784F841200C2922D083
:101A20000122206800F0BCFA11492068884203D1E5
:101A3000426C42F4004242642068884208D0B0F10F
:101A4000804F05D00B49884202D00B49884204D10F
:101A5000816801F00701062903D0016841F0010106
:101A60000160002010BD2068C26842F01002C6E785
:101A7000002C0140000400400008004070B50446FE
:101A800090F83C000D4601280AD0012084F83C0063
:101A900042B1042A18D0082A2AD00C2A4DD139E0A4
:101AA000022070BD206800F09BFA2068816941F037
:101AB000080181612068816921F004018161206849
:101AC00081692A69114311E0206800F0B1FA2068A9
:101AD000816941F4006181612068816921F480613C
:101AE0008161206881692A6941EA0221816124E0DB
:101AF000206800F0C9FA2068C16941F00801C1619D
:101B00002068C16921F00401C1612068C1692A69A6
:101B1000114311E0206800F0E3FA2068C16941F444
:101B20000061C1612068C16921F48061C1612068E0
:101B3000C1692A6941EA0221C161002084F83C00A0
:101B400070BD10B5040003D094F83D0010B107E05B
:101B5000012010BD002084F83C00204600F01EF853
:101B6000022084F83D00211D206800F0E3F90120E7
:101B700084F8460084F83E0084F83F0084F8400072
:101B800084F8410084F8420084F8430084F844005B
:101B900084F8450084F83D00002010BD7047704770
:101BA00010B50446022249B104290ED0082913D0E9
:101BB00094F84100012816D0012010BD94F83E0091
:101BC0000128F9D184F83E200FE094F83F00012865
:101BD000F2D184F83F2008E094F840000128EBD1CE
:101BE00084F8402001E084F841200122206800F0C0
:101BF000D7F90F492068884203D1426C42F4004271
:101C000042642068884208D0B0F1804F05D009496D
:101C1000884202D00849884204D1816801F0070156
:101C2000062903D0016841F001010160002010BDC8
:101C3000002C01400004004000080040704770473D
:101C400070B5040004D094F83D00002510B106E002
:101C5000012070BD84F83C50204600F023F8242079
:101C600084F83D002068C16821F40051C16020461D
:101C700000F07CFA2068016921F49041016120683C
:101C8000416921F02A0141612068C16841F4005195
:101C9000C1602564202084F83D0084F83E000020C7
:101CA00070BD000030B585B000240094019402940A
:101CB000039400681449884224D11448816941F48E
:101CC00080418161816901F480410491816941F021
:101CD0000401816180690E4D00F0040004904FF40E
:101CE000007000900220019003200390694628466E
:101CF000FEF7B2FD2815CDE9000469462846029496
:101D0000FEF7AAFD05B030BD0038014000100240CA
:101D100000080140FEE700003EB500241048009492
:101D2000019402940D4984600160047304750125D7
:101D300005614FF460214460C161FEF7A9FB08B161
:101D400072B6FEE70095CDE9015469460448FEF7F6
:101D50001DFB002801D072B6FEE73EBD0024014005
:101D60003C00002070B586B000241C48009401940B
:101D700002940394816941F010018161816901F04D
:101D800010010491816941F020018161816901F0B4
:101D900020010491816941F004018161816901F0B0
:101DA00004010491816941F00801816180690C4E50
:101DB00000F008004FF400550490002229463046F8
:101DC000FEF742FE01200095CDE9010402200390B8
:101DD00069463046FEF740FD06B070BD0010024077
:101DE0000010014010B58EB00024079408940994A7
:101DF0000A940B941C2168460C94FEF7E5F92748D9
:101E00004FF0804101604721C0E9011440F21941BF
:101E1000C0E903148461FFF74DFB08B172B6FEE719
:101E20004FF48050079007A91C48FFF7B9FB08B191
:101E300072B6FEE71948FFF784FE08B172B6FEE7F6
:101E40001648FFF78BFD08B172B6FEE70B940BA99D
:101E500012480C94FFF7FAFA08B172B6FEE7602058
:101E6000CDE90004022002900022694604940B4848
:101E7000FFF704FE08B172B6FEE74FF47A70CDE9C1
:101E80000040042269460548FFF7CEFC08B172B64F
:101E9000FEE70248FFF7A4FC0EB010BDC000002012
:101EA000FEE7FEE770477047FEF7CCBE30B593B053
:101EB00028216846FEF788F914210AA8FEF784F95C
:101EC000002501200F9510951195010412958DE8BC
:101ED000230004904FF4E010CDE908100224079489
:101EE0006846FFF70DF908B172B6FEE70AA90F20A0
:101EF00081E831004FF48060CDE90D0502210AA888
:101F0000FFF712F808B172B6FEE74FF400401190E7
:101F10000F940FA8FEF792FF002801D072B6FEE7DB
:101F200013B030BD704700000148FFF7A5BB0000AB
:101F3000C0000020F0B50268164B174C174D4FF04B
:101F40008047984205D0B84203D0A04201D0A842B1
:101F500003D122F070064A683243984205D0B84255
:101F600003D0A04201D0A84203D122F44074CA6831
:101F700022434C6922F08002224302608A68C262D6
:101F80000A688262984201D10969016301214161B5
:101F9000F0BD0000002C014000040040000800409B
:101FA00010B501F01F030121046A99408C430462BB
:101FB000016A9A401143016210BD10B5846842EA7B
:101FC000032224F47F440A432243826010BD8268C6
:101FD00022F070020A4342F007018160704700005E
:101FE00030B5026A22F001020262026A4368846923
:101FF00024F073050C682C4322F002058A682A43FA
:102000000A4DA8420BD122F00805CA6823F4407398
:102010002A434D6922F004021D438B692B43436020
:10202000846149684163026230BD0000002C0140B8
:1020300030B5026A22F010020262026A43688469C3
:102040000D6824F4E64444EA05248D6822F0200259
:1020500042EA05120B4DA8420ED1CD6822F0800253
:1020600042EA05124D6923F4406343EA85038D6912
:1020700022F0400243EA850343608461496881633A
:10208000026230BD002C014030B5026A22F4807239
:102090000262036A4268C46923F4007324F0730582
:1020A0000C682C438D6843EA05230C4DA8420ED1E1
:1020B000CD6823F4006343EA05234D6922F44052BE
:1020C00042EA05128D6923F4806342EA05124260F8
:1020D000C4614968C163036230BD0000002C014047
:1020E00030B5026A22F480520262046A4268C3690F
:1020F0000D6823F4E64343EA05238D6824F4005475
:1021000044EA0534064DA84204D14D6922F48042C8
:1021100042EA85124260C36149680164046230BDCD
:10212000002C014010B5036A046A24F00104046223
:10213000846924F0F00444EA021423F00A020A43FA
:102140008461026210BD10B5036A23F010030362BC
:102150008369046A23F4704343EA023224F0A00343
:1021600043EA01118261016210BD000070B50446AE
:1021700000680169E26821F440511143016121695D
:10218000A0680843616908432168CA6841F20C638A
:102190009A430243CA6020684169A26921F44071F0
:1021A000114341611E492068884202D1FEF762FF57
:1021B00001E0FEF74FFF00EBC00101EB0012606889
:1021C00064218000B2FBF0F3B3FBF1F36FF018066B
:1021D0007343B2FBF0F5B2FBF0F605EB8305322357
:1021E00003EB0515B5FBF1F5B6FBF1F605F0F005CF
:1021F00005EB0615B2FBF0F6B2FBF0F0B0FBF1F028
:102200006FF01802504306EB800003EB0010B0FBA8
:10221000F1F0216800F00F002844886070BD0000D4
:1022200000380140FEE70907090E002804DB00F131
:10223000E02080F80014704700F00F0000F1E0206B
:1022400080F8141D704700002DE9F05F0120FEF7B3
:1022500089F83748FEF774FA4FF47A7739463448EC
:10226000FEF7D0F93248FEF70FF9DFF8C88040F6E4
:10227000D861DFF8C490314CDFF8C4B04FEA680A87
:10228000884218DA2A48FEF7FFF800F086F942463D
:102290004B4600F095F905460E46A08800F07DF902
:1022A00052465B4600F08CF933462A4600F0A0F80F
:1022B00000F046F9A0801E48FEF7A2FA0220FEF7C1
:1022C00051F81B48FEF73CFA39461948FEF79AF9CF
:1022D0001748FEF7D9F8E0801548FEF791FA032079
:1022E000FEF740F81248FEF72BFA39461048FEF781
:1022F00089F90F48FEF7C8F800F04FF942464B46FF
:1023000000F05EF906460D46208900F046F9524677
:102310005B4600F055F932462B4600F069F800F0B4
:102320000FF92081BDE8F05F0148FEF769BA0000AF
:102330003C0000209A9999999999B93F0000002092
:10234000CCCCEC3FFEF786FCFFF7B0FDFFF70AFDB3
:10235000FFF7E2FC22482149002401602149C0E93D
:1023600001144FF48041C0E9034144618461C461B8
:102370000462FEF775FB08B172B6FEE718481A4909
:102380009C3001604FF4E131C0E901140C21C460BC
:10239000C0E904418461C461FFF752FC08B172B620
:1023A000FEE7FFF71FFD0E485430FFF7CDF80C484D
:1023B00000215430FFF7F4FB094804215430FFF7A3
:1023C000FBFA0A4D4FF400544FF4FA7621462846A2
:1023D000FEF732FB3046FEF72DFAF7E700540040D7
:1023E0006C000020A0860100003801400010014070
:1023F00010B591EA030F48BF83F0004300F1E68176
:10240000841A71EB030C05D2121943EB0C03001B69
:1024100061EB0C01DFF824E14FEA1154A4EB135CEB
:102420001EEA430F18BF9EEA445F73D023EA0E03EF
:10243000DCF1200E21EA045143F4801332D322FA56
:102440000CFE10EB0E0023FA0CFE41EB0E01CCF15A
:10245000200E03FA0EFE10EB0E0051F10001B1F553
:10246000801FCCF1200E32D201EB045112FA0EF291
:10247000BDE8104058BF7047401C38BF5FEA4202B9
:1024800018BF7047002814BF20F0010041F100017F
:102490004FEA410313F5001F38BF7047A1F1C04157
:1024A00000F086B9012A43EB0302ACF1200CDCF109
:1024B0001F0E32BF4FF0000E23FA0CF310EB030097
:1024C00041EB0451B4EB115FD0D0A1EB045101F505
:1024D000801149085FEA300001EB04510ED350F13E
:1024E000000038BF12FA0EFE08D1BDE81040C9E75F
:1024F000401C38BF5FEA4202CAD1C3E7BDE81040C2
:102500004FEA410313F5001F38BF7047A1F1C041E6
:1025100000F04EB99EEA445F08D011EA5E0FBDE8B4
:10252000104004BF01F0004100207047BDE810409A
:1025300070B500F0EFF800BF64FBBE3E0000E0FFA6
:102540004FEA1153A3F58063D3F11E03A8BFD3F163
:10255000200C08DB4FF0004242EAC12252EA5052FE
:1025600032FA03F0704709420BD4102BC4BF00208D
:10257000704703F5787CBCF1FF3F05D04FF0FF308A
:1025800070474FF00000704770B500F0C3F800BF0F
:102590004992248000207047F0E7B0FA80F310FAE7
:1025A00003F10AD0C3F11D0303F580634FEA4150E4
:1025B0004FEA035202EBD12170474FF00000704701
:1025C000DFF848C170B51CEA111E1EBF1CEA1315C6
:1025D0009EEA0C0F95EA0C0F00F06F8081EA03046D
:1025E00023EA4C134EEAD47E21EA4C1141F48011C7
:1025F00043F48013AE44A1FB024CA0FB0365AEF193
:102600007F7E361955EB0C05A1FB034C4CF1000302
:10261000A0FB021C16EB0C06654153F100030942B6
:1026200018BF46F0010613F4007F0BD14FEA0331C7
:102630004FEA0530340341EA155140EA16506FF075
:1026400003020AE04FEAC3214FEAC520F40241EA3F
:10265000555140EA56506FF0020202EB2E4201EB58
:10266000025585EACE710AD05FEA440C18BF24F007
:10267000004450F1000041F1000120EAD47040F222
:10268000FE7C624500D270BDA84214BF4FF080446A
:102690004FF04044002E08BF0024BEF1806FA8BF59
:1026A000A1F1C041BDE8704080F282804FF000008F
:1026B00001F1C04101F0004170479EEA0C0F0CEAA5
:1026C000131518BF95EA0C0F06D04FF0000081EAF1
:1026D000030E0EF0004170BD00F01CF88900013EB1
:1026E00000F007B800F009B84FEA430C5FEA5C5C01
:1026F00008D081EA030100F05BB84FEA410C5FEAC1
:102700005C5CF6D14FF00000014970470000FF0704
:102710000000F87F0EF1020E2EF0030E5EF8046B3F
:10272000364205D4012A43EB030515F5001F12D8E4
:10273000012841EB010C1CF5001F0CD80ED14FEA0B
:10274000D17C15F5001F0CEB4C0C0CF1020C08BFF2
:102750004CEBD37C04E04FF0080C01E04FEAD37C53
:102760000CEB4C0526FA05F606F00706B6F1040C4C
:1027700006D20EEB860CBDE870404CF0010C6047B1
:10278000DFE80CF0090B02024FF000414FF00000AF
:10279000A1F5002170BD19461046012851EB010436
:1027A00018BFD4F5001484BF002001F0004170BDB3
:1027B0000808A0F500114FEA3101704710B591EA01
:1027C000030F48BF83F000433FF51AAE841A71EB44
:1027D000030C07D212198CF0004C43EB0C03001BC6
:1027E00061EB0C01DFF8A4E14FEA1154A4EB135C98
:1027F0001EEA430F18BF9EEA445F00F0B08023EA50
:102800006E03524221EA0451C3EB6E0338BF5B1ED4
:10281000DCF1200E25D322FA0CFE10EB0E0043FA59
:102820000CFE41EB0E01CCF1200E03FA0EFE10EB74
:102830000E0051F10001CCF1200E29D412FA0EF253
:1028400001EB0451BDE8104058BF7047401C1CBF4D
:10285000B2F1004F704700280CBF491C20F0010066
:10286000704712EB020E43EB030218BF4FF0010E4C
:102870004EEA4202ACF1200CDCF11E0E54D943FAB0
:102880000CFE10EB0E0051F1FF31CCF11E0ED5D530
:102890000EF1010E12FA0EFE404141EB010101EB77
:1028A000445C5FEA5C5C10D910EBDE7001EB045114
:1028B00038BFBEF1004FBDE8104018BF7047002878
:1028C0000CBF491C20F00100704730D24FEAD42CD5
:1028D00011F5001124F400641BD0B1FA81F20B3A17
:1028E000A41AA41ED2F12003914030FA03F3194335
:1028F000904001EBCC71002C01EB0451BDE810407D
:10290000A8BF704701F1C0414FF0000001F0004145
:102910007047B0FA80F310FA03F100D110BDE41A49
:10292000173C4805C90AE4E701EB045110BD491002
:1029300001EB0451BDE810404FEA300002E04FF0D7
:10294000000170474A0008BF0042F8D0B2F5001FEE
:1029500028BF704701F000414FF0000070479EEA29
:10296000445F07D011EA5E0FBDE8104004BF0021AC
:1029700000207047BDE8104070B5FFF7CBFE00BFE8
:1029800040DFF63E83F00041104670470000E0FF54
:1029900090EA010F48BF81F0004100F19C81421A8A
:1029A0003CBF801A89184FEAD0524FF07F4C1CEA86
:1029B000410FA2EBD15318BF9CEA026F00F03B809D
:1029C0004FF0004C4CEA00204CEA012121FA03FCB4
:1029D00010EB0C0C1ED202F1FF325FEA1C2040EB20
:1029E000C25038BF70471CF07F0F4FEA400C18BF31
:1029F000BCF17F4F38BF7047C3F12003994008BF37
:102A000020F00100BCF17F4F38BF7047A0F1C040FB
:102A100000F055B94FEA3C00000A40EBC25028BF15
:102A20001CF0FF0F4FEA400CE6D018BFBCF17F4FFF
:102A300038BF7047EAE79CEA026F05D010EA5C0FE6
:102A400008BF00F00040704710B500F0F2F800BF7A
:102A500064FBBE3E014800F0ACB900BF0000C07F7F
:102A600041000B0ED3F19E0208D950F400034FEA47
:102A7000032323FA02F048BF4042704710B500F02C
:102A8000D8F800BF49922480002070476FF00042C0
:102A900082EA200070470000C10DD1F19E0206DBE2
:102AA0004FEA002343F0004323FA02F0704700424C
:102AB00007D54FEA4001B1F1FE4F02D24FF00000BE
:102AC000704710B500F0B5F8499224800020704797
:102AD0006FEA20007047000010F0004148BF4042FC
:102AE000B0FA80F310FA03F2C3F19D030BD051EA60
:102AF000C35101EB1220530638BF704700F10100AB
:102B000008BF20F001007047B0FA80F310FA03F21A
:102B1000C3F19D030AD0D90501EB1220530638BF3B
:102B2000704700F1010008BF20F00100704700006D
:102B30004FF47F0C1CEAD0121EBF1CEAD11392EA9C
:102B40000C0F93EA0C0F00F0478090EA010F48BF8A
:102B500042F480724FF0004C4CEA00204CEA012114
:102B600002EB0302A0FB0113A2F50002002918BF2B
:102B700043F001035B0028BF4FEA330342EB2242DC
:102B80005FEA132C4CEBC2502EBFBCEB436FB2F587
:102B90007C0F70474FEA036CBCF1004F08BF20F078
:102BA0000100B2F57C0F38BF70470BD582F0FF02F1
:102BB00012F5803FC8BF704700F1C040D8BF00F099
:102BC0000040704700F5000C5FEA4C0C48BF7047AE
:102BD000B0F1C04000F073B890EA010F0CEAD113D5
:102BE00048BF42F48072624538BF634504D280EA30
:102BF000010000F00040704710B500F01AF800BF67
:102C00008900013E00F007B800F009B85FEA410C06
:102C10005FEA1C6C08D080EA010000F050B85FEA5F
:102C2000400C5FEA1C6CF6D14FF00040A0F580002C
:102C300070470EF1020E2EF0030E5EF8044B244294
:102C400004D44FEA4102B2F17F4F11D84FEA40035A
:102C5000B3F17F4F0CD80ED14FEAD07CB2F17F4F49
:102C60000CEB4C0C0CF1020C08BF4CEBD17C04E0DB
:102C70004FF0080C01E04FEAD17C0CEB4C0324FA36
:102C800003F404F00704B4F1040C06D20EEB840C38
:102C9000BDE810404CF0010C6047DFE80CF007087D
:102CA00002024FF00040A0F5800010BD084642002F
:102CB00018BFD2F1807288BF00F0004010BDFF2124
:102CC00041EAD050C005704790EA010F48BF81F03B
:102CD00000413FF564AE421A04D882F00042A0EBF6
:102CE000020011444FEAD0524FF07F4C1CEA410FD2
:102CF000A2EBD15318BF9CEA026F4AD04FF0004CB0
:102D00004CEA00204CEA012121FA03FCB0EB0C0C48
:102D10000FD412F0FE0F36D05FEA4C001DD5001222
:102D200040EBC25038BF70471CF03F0F18BF7047D0
:102D30000BE0A2F101025FEA1C2040EBC25038BF59
:102D400070471CF07F0F18BF7047C3F120039940F4
:102D500014BF401E20F00100704780084FEA122384
:102D600008BF7047B0FA80FCA2EB0C02CCF1280C33
:102D700060FA0CF093EA122F04BF00EBC2507047C8
:102D80004FEAC3707047130A5FEADC1008BF704750
:102D9000F6E79CEA026F04D010EA5C0F08BF00203F
:102DA000704710B5FFF745FF40DFF63E81F0004069
:102DB00070470CF00F03092B08BF082000F051806A
:102DC0000A2B0BD0082B18BF704708BF1CF0400F10
:102DD0000AD04FF000004FF0000170471CF0400F88
:102DE00018BF4FF0004070471CF0100F08D020F0C3
:102DF000704300F07F4242EAD3014FEA43707047CC
:102E000000F0604021F07F4242EA000201F07F4082
:102E100040EA727070474FF0FF0212EAD0521CBFB6
:102E200092F0FF038B42C2BFD14200EBC15070470A
:102E3000002A0AD0002B0BD0002900F00040A4BFCC
:102E400040F0FE4040F40000704700F00040704742
:102E500043024FF00B0C18BF4CF0806C7FF4FAADBE
:102E600070471CF4801F11D01CF4E02F03D06FEAD0
:102E7000CC31490070474FF04050EFF3008222F010
:102E8000704242EA000282F3008870474FF000006F
:102E90007047000000000000000001020304060764
:102EA000080900000000010203040000CC2E000805
:102EB000000000203C00000028010008082F000846
:102EC0003C00002074070000440100082C010000B1
:102ED000000000000000000000000000F4010000FD
:102EE0000000F041000000000000000000000000B1
:102EF00000000000000000000100000010000000C1
:082F0000000000000024F400B1
:04000005080000ED02
:00000001FF
